{
  "contractName": "conditionalTokens",
  "abi": [
    {
      "constant": true,
      "inputs": [
        {
          "name": "",
          "type": "address"
        }
      ],
      "name": "allCompanies",
      "outputs": [
        {
          "name": "exists",
          "type": "uint8"
        },
        {
          "name": "balance",
          "type": "uint256"
        },
        {
          "name": "name",
          "type": "string"
        }
      ],
      "payable": false,
      "stateMutability": "view",
      "type": "function"
    },
    {
      "constant": true,
      "inputs": [
        {
          "name": "",
          "type": "address"
        },
        {
          "name": "",
          "type": "uint256"
        }
      ],
      "name": "companyEmployees",
      "outputs": [
        {
          "name": "",
          "type": "address"
        }
      ],
      "payable": false,
      "stateMutability": "view",
      "type": "function"
    },
    {
      "constant": true,
      "inputs": [
        {
          "name": "",
          "type": "address"
        }
      ],
      "name": "allEmployees",
      "outputs": [
        {
          "name": "exists",
          "type": "uint8"
        },
        {
          "name": "name",
          "type": "string"
        },
        {
          "name": "homeCity",
          "type": "string"
        },
        {
          "name": "company",
          "type": "address"
        }
      ],
      "payable": false,
      "stateMutability": "view",
      "type": "function"
    },
    {
      "constant": true,
      "inputs": [
        {
          "name": "",
          "type": "address"
        }
      ],
      "name": "allServiceProviders",
      "outputs": [
        {
          "name": "exists",
          "type": "uint256"
        },
        {
          "name": "name",
          "type": "string"
        },
        {
          "name": "city",
          "type": "string"
        }
      ],
      "payable": false,
      "stateMutability": "view",
      "type": "function"
    },
    {
      "constant": true,
      "inputs": [
        {
          "name": "",
          "type": "address"
        }
      ],
      "name": "allClaims",
      "outputs": [
        {
          "name": "exists",
          "type": "uint8"
        },
        {
          "name": "company",
          "type": "address"
        },
        {
          "name": "budget",
          "type": "uint256"
        },
        {
          "name": "city",
          "type": "string"
        },
        {
          "name": "startTime",
          "type": "uint256"
        },
        {
          "name": "endTime",
          "type": "uint256"
        }
      ],
      "payable": false,
      "stateMutability": "view",
      "type": "function"
    },
    {
      "anonymous": false,
      "inputs": [
        {
          "indexed": true,
          "name": "companyAddress",
          "type": "address"
        },
        {
          "indexed": true,
          "name": "employeeAddress",
          "type": "address"
        },
        {
          "indexed": false,
          "name": "serviceProvider",
          "type": "address"
        },
        {
          "indexed": false,
          "name": "amount",
          "type": "uint256"
        }
      ],
      "name": "transfer",
      "type": "event"
    },
    {
      "anonymous": false,
      "inputs": [
        {
          "indexed": true,
          "name": "companyAddress",
          "type": "address"
        },
        {
          "indexed": true,
          "name": "employeeAddress",
          "type": "address"
        },
        {
          "indexed": false,
          "name": "budget",
          "type": "uint256"
        },
        {
          "indexed": false,
          "name": "city",
          "type": "string"
        },
        {
          "indexed": false,
          "name": "startTime",
          "type": "uint256"
        },
        {
          "indexed": false,
          "name": "endTime",
          "type": "uint256"
        }
      ],
      "name": "claim",
      "type": "event"
    },
    {
      "constant": false,
      "inputs": [
        {
          "name": "name",
          "type": "string"
        }
      ],
      "name": "addCompany",
      "outputs": [],
      "payable": true,
      "stateMutability": "payable",
      "type": "function"
    },
    {
      "constant": false,
      "inputs": [
        {
          "name": "employeeAddress",
          "type": "address"
        },
        {
          "name": "name",
          "type": "string"
        },
        {
          "name": "homeCity",
          "type": "string"
        }
      ],
      "name": "addEmployee",
      "outputs": [],
      "payable": false,
      "stateMutability": "nonpayable",
      "type": "function"
    },
    {
      "constant": false,
      "inputs": [],
      "name": "refillAccount",
      "outputs": [],
      "payable": true,
      "stateMutability": "payable",
      "type": "function"
    },
    {
      "constant": false,
      "inputs": [
        {
          "name": "name",
          "type": "string"
        },
        {
          "name": "location",
          "type": "string"
        }
      ],
      "name": "addServiceProvider",
      "outputs": [],
      "payable": true,
      "stateMutability": "payable",
      "type": "function"
    },
    {
      "constant": false,
      "inputs": [
        {
          "name": "employeeAddress",
          "type": "address"
        },
        {
          "name": "city",
          "type": "string"
        },
        {
          "name": "priceLimit",
          "type": "uint256"
        },
        {
          "name": "startTime",
          "type": "uint256"
        },
        {
          "name": "endTime",
          "type": "uint256"
        }
      ],
      "name": "addClaim",
      "outputs": [],
      "payable": false,
      "stateMutability": "nonpayable",
      "type": "function"
    },
    {
      "constant": false,
      "inputs": [
        {
          "name": "serviceProvider",
          "type": "address"
        },
        {
          "name": "amount",
          "type": "uint256"
        }
      ],
      "name": "payServiceProvider",
      "outputs": [],
      "payable": false,
      "stateMutability": "nonpayable",
      "type": "function"
    },
    {
      "constant": true,
      "inputs": [],
      "name": "getEmployees",
      "outputs": [
        {
          "name": "",
          "type": "address[]"
        }
      ],
      "payable": false,
      "stateMutability": "view",
      "type": "function"
    }
  ],
  "bytecode": "0x608060405234801561001057600080fd5b50612404806100206000396000f3fe6080604052600436106100b9576000357c0100000000000000000000000000000000000000000000000000000000900463ffffffff168062e31b3b146100be578063021fa6561461019c5780632444b200146102375780633430afe5146102415780633cf9e381146103b75780634abefa36146104f45780634b42c9cd14610560578063758123c3146105bb57806388ffb3e51461070d578063a09c8d921461082c578063d6483d1714610932578063e63a2615146109ed575b600080fd5b3480156100ca57600080fd5b5061010d600480360360208110156100e157600080fd5b81019080803573ffffffffffffffffffffffffffffffffffffffff169060200190929190505050610b6c565b604051808460ff1660ff16815260200183815260200180602001828103825283818151815260200191508051906020019080838360005b8381101561015f578082015181840152602081019050610144565b50505050905090810190601f16801561018c5780820380516001836020036101000a031916815260200191505b5094505050505060405180910390f35b3480156101a857600080fd5b506101f5600480360360408110156101bf57600080fd5b81019080803573ffffffffffffffffffffffffffffffffffffffff16906020019092919080359060200190929190505050610c3b565b604051808273ffffffffffffffffffffffffffffffffffffffff1673ffffffffffffffffffffffffffffffffffffffff16815260200191505060405180910390f35b61023f610c88565b005b34801561024d57600080fd5b506102906004803603602081101561026457600080fd5b81019080803573ffffffffffffffffffffffffffffffffffffffff169060200190929190505050610d30565b604051808560ff1660ff16815260200180602001806020018473ffffffffffffffffffffffffffffffffffffffff1673ffffffffffffffffffffffffffffffffffffffff168152602001838103835286818151815260200191508051906020019080838360005b838110156103125780820151818401526020810190506102f7565b50505050905090810190601f16801561033f5780820380516001836020036101000a031916815260200191505b50838103825285818151815260200191508051906020019080838360005b8381101561037857808201518184015260208101905061035d565b50505050905090810190601f1680156103a55780820380516001836020036101000a031916815260200191505b50965050505050505060405180910390f35b3480156103c357600080fd5b50610406600480360360208110156103da57600080fd5b81019080803573ffffffffffffffffffffffffffffffffffffffff169060200190929190505050610ebd565b604051808481526020018060200180602001838103835285818151815260200191508051906020019080838360005b83811015610450578082015181840152602081019050610435565b50505050905090810190601f16801561047d5780820380516001836020036101000a031916815260200191505b50838103825284818151815260200191508051906020019080838360005b838110156104b657808201518184015260208101905061049b565b50505050905090810190601f1680156104e35780820380516001836020036101000a031916815260200191505b509550505050505060405180910390f35b34801561050057600080fd5b50610509611017565b6040518080602001828103825283818151815260200191508051906020019060200280838360005b8381101561054c578082015181840152602081019050610531565b505050509050019250505060405180910390f35b34801561056c57600080fd5b506105b96004803603604081101561058357600080fd5b81019080803573ffffffffffffffffffffffffffffffffffffffff169060200190929190803590602001909291905050506110e2565b005b61070b600480360360408110156105d157600080fd5b81019080803590602001906401000000008111156105ee57600080fd5b82018360208201111561060057600080fd5b8035906020019184600183028401116401000000008311171561062257600080fd5b91908080601f016020809104026020016040519081016040528093929190818152602001838380828437600081840152601f19601f8201169050808301925050505050505091929192908035906020019064010000000081111561068557600080fd5b82018360208201111561069757600080fd5b803590602001918460018302840111640100000000831117156106b957600080fd5b91908080601f016020809104026020016040519081016040528093929190818152602001838380828437600081840152601f19601f8201169050808301925050505050505091929192905050506119d0565b005b34801561071957600080fd5b5061075c6004803603602081101561073057600080fd5b81019080803573ffffffffffffffffffffffffffffffffffffffff169060200190929190505050611a83565b604051808760ff1660ff1681526020018673ffffffffffffffffffffffffffffffffffffffff1673ffffffffffffffffffffffffffffffffffffffff16815260200185815260200180602001848152602001838152602001828103825285818151815260200191508051906020019080838360005b838110156107ec5780820151818401526020810190506107d1565b50505050905090810190601f1680156108195780820380516001836020036101000a031916815260200191505b5097505050505050505060405180910390f35b34801561083857600080fd5b50610930600480360360a081101561084f57600080fd5b81019080803573ffffffffffffffffffffffffffffffffffffffff1690602001909291908035906020019064010000000081111561088c57600080fd5b82018360208201111561089e57600080fd5b803590602001918460018302840111640100000000831117156108c057600080fd5b91908080601f016020809104026020016040519081016040528093929190818152602001838380828437600081840152601f19601f820116905080830192505050505050509192919290803590602001909291908035906020019092919080359060200190929190505050611b84565b005b6109eb6004803603602081101561094857600080fd5b810190808035906020019064010000000081111561096557600080fd5b82018360208201111561097757600080fd5b8035906020019184600183028401116401000000008311171561099957600080fd5b91908080601f016020809104026020016040519081016040528093929190818152602001838380828437600081840152601f19601f820116905080830192505050505050509192919290505050611e66565b005b3480156109f957600080fd5b50610b6a60048036036060811015610a1057600080fd5b81019080803573ffffffffffffffffffffffffffffffffffffffff16906020019092919080359060200190640100000000811115610a4d57600080fd5b820183602082011115610a5f57600080fd5b80359060200191846001830284011164010000000083111715610a8157600080fd5b91908080601f016020809104026020016040519081016040528093929190818152602001838380828437600081840152601f19601f82011690508083019250505050505050919291929080359060200190640100000000811115610ae457600080fd5b820183602082011115610af657600080fd5b80359060200191846001830284011164010000000083111715610b1857600080fd5b91908080601f016020809104026020016040519081016040528093929190818152602001838380828437600081840152601f19601f820116905080830192505050505050509192919290505050611f1e565b005b60006020528060005260406000206000915090508060000160009054906101000a900460ff1690806001015490806002018054600181600116156101000203166002900480601f016020809104026020016040519081016040528092919081815260200182805460018160011615610100020316600290048015610c315780601f10610c0657610100808354040283529160200191610c31565b820191906000526020600020905b815481529060010190602001808311610c1457829003601f168201915b5050505050905083565b600260205281600052604060002081815481101515610c5657fe5b906000526020600020016000915091509054906101000a900473ffffffffffffffffffffffffffffffffffffffff1681565b60016000803373ffffffffffffffffffffffffffffffffffffffff1673ffffffffffffffffffffffffffffffffffffffff16815260200190815260200160002060000160009054906101000a900460ff1660ff16141515610ce857600080fd5b346000803373ffffffffffffffffffffffffffffffffffffffff1673ffffffffffffffffffffffffffffffffffffffff16815260200190815260200160002060010181905550565b60016020528060005260406000206000915090508060000160009054906101000a900460ff1690806001018054600181600116156101000203166002900480601f016020809104026020016040519081016040528092919081815260200182805460018160011615610100020316600290048015610def5780601f10610dc457610100808354040283529160200191610def565b820191906000526020600020905b815481529060010190602001808311610dd257829003601f168201915b505050505090806002018054600181600116156101000203166002900480601f016020809104026020016040519081016040528092919081815260200182805460018160011615610100020316600290048015610e8d5780601f10610e6257610100808354040283529160200191610e8d565b820191906000526020600020905b815481529060010190602001808311610e7057829003601f168201915b5050505050908060030160009054906101000a900473ffffffffffffffffffffffffffffffffffffffff16905084565b6003602052806000526040600020600091509050806000015490806001018054600181600116156101000203166002900480601f016020809104026020016040519081016040528092919081815260200182805460018160011615610100020316600290048015610f6f5780601f10610f4457610100808354040283529160200191610f6f565b820191906000526020600020905b815481529060010190602001808311610f5257829003601f168201915b505050505090806002018054600181600116156101000203166002900480601f01602080910402602001604051908101604052809291908181526020018280546001816001161561010002031660029004801561100d5780601f10610fe25761010080835404028352916020019161100d565b820191906000526020600020905b815481529060010190602001808311610ff057829003601f168201915b5050505050905083565b6060600260003373ffffffffffffffffffffffffffffffffffffffff1673ffffffffffffffffffffffffffffffffffffffff1681526020019081526020016000208054806020026020016040519081016040528092919081815260200182805480156110d857602002820191906000526020600020905b8160009054906101000a900473ffffffffffffffffffffffffffffffffffffffff1673ffffffffffffffffffffffffffffffffffffffff168152602001906001019080831161108e575b5050505050905090565b6001600460003373ffffffffffffffffffffffffffffffffffffffff1673ffffffffffffffffffffffffffffffffffffffff16815260200190815260200160002060000160009054906101000a900460ff1660ff161415156111ac576040517f08c379a00000000000000000000000000000000000000000000000000000000081526004018080602001828103825260148152602001807f436c61696d20646f6573206e6f7420657869737400000000000000000000000081525060200191505060405180910390fd5b42600460003373ffffffffffffffffffffffffffffffffffffffff1673ffffffffffffffffffffffffffffffffffffffff1681526020019081526020016000206003015410801561123e575042600460003373ffffffffffffffffffffffffffffffffffffffff1673ffffffffffffffffffffffffffffffffffffffff16815260200190815260200160002060040154115b15156112b2576040517f08c379a000000000000000000000000000000000000000000000000000000000815260040180806020018281038252601b8152602001807f496e636f7272656374207374617274206f7220656e642074696d65000000000081525060200191505060405180910390fd5b6001600360008473ffffffffffffffffffffffffffffffffffffffff1673ffffffffffffffffffffffffffffffffffffffff1681526020019081526020016000206000015414151561136c576040517f08c379a000000000000000000000000000000000000000000000000000000000815260040180806020018281038252601f8152602001807f536572766963652070726f766964657220646f6573206e6f742065786973740081525060200191505060405180910390fd5b61152a600460003373ffffffffffffffffffffffffffffffffffffffff1673ffffffffffffffffffffffffffffffffffffffff1681526020019081526020016000206002018054600181600116156101000203166002900480601f0160208091040260200160405190810160405280929190818152602001828054600181600116156101000203166002900480156114455780601f1061141a57610100808354040283529160200191611445565b820191906000526020600020905b81548152906001019060200180831161142857829003601f168201915b5050505050600160003373ffffffffffffffffffffffffffffffffffffffff1673ffffffffffffffffffffffffffffffffffffffff1681526020019081526020016000206002018054600181600116156101000203166002900480601f0160208091040260200160405190810160405280929190818152602001828054600181600116156101000203166002900480156115205780601f106114f557610100808354040283529160200191611520565b820191906000526020600020905b81548152906001019060200180831161150357829003601f168201915b5050505050612152565b15151561159f576040517f08c379a00000000000000000000000000000000000000000000000000000000081526004018080602001828103825260138152602001807f43697479206973206120686f6d6520636974790000000000000000000000000081525060200191505060405180910390fd5b61175d600460003373ffffffffffffffffffffffffffffffffffffffff1673ffffffffffffffffffffffffffffffffffffffff1681526020019081526020016000206002018054600181600116156101000203166002900480601f0160208091040260200160405190810160405280929190818152602001828054600181600116156101000203166002900480156116785780601f1061164d57610100808354040283529160200191611678565b820191906000526020600020905b81548152906001019060200180831161165b57829003601f168201915b5050505050600360008573ffffffffffffffffffffffffffffffffffffffff1673ffffffffffffffffffffffffffffffffffffffff1681526020019081526020016000206002018054600181600116156101000203166002900480601f0160208091040260200160405190810160405280929190818152602001828054600181600116156101000203166002900480156117535780601f1061172857610100808354040283529160200191611753565b820191906000526020600020905b81548152906001019060200180831161173657829003601f168201915b5050505050612152565b15156117d1576040517f08c379a00000000000000000000000000000000000000000000000000000000081526004018080602001828103825260138152602001807f43697479206973206e6f7420616c6c6f7765640000000000000000000000000081525060200191505060405180910390fd5b80600460003373ffffffffffffffffffffffffffffffffffffffff1673ffffffffffffffffffffffffffffffffffffffff1681526020019081526020016000206001015411151561188a576040517f08c379a000000000000000000000000000000000000000000000000000000000815260040180806020018281038252600e8152602001807f4f7665722062756467657420796f00000000000000000000000000000000000081525060200191505060405180910390fd5b3373ffffffffffffffffffffffffffffffffffffffff16600160003373ffffffffffffffffffffffffffffffffffffffff1673ffffffffffffffffffffffffffffffffffffffff16815260200190815260200160002060030160009054906101000a900473ffffffffffffffffffffffffffffffffffffffff1673ffffffffffffffffffffffffffffffffffffffff167ff18d03cc52b48ed573f82470918a45b057576d5e079d4aaa8acb1f656dc20f3c8484604051808373ffffffffffffffffffffffffffffffffffffffff1673ffffffffffffffffffffffffffffffffffffffff1681526020018281526020019250505060405180910390a38173ffffffffffffffffffffffffffffffffffffffff166108fc829081150290604051600060405180830381858888f193505050501580156119cb573d6000803e3d6000fd5b505050565b6119d861225a565b6060604051908101604052806001815260200184815260200183815250905080600360003373ffffffffffffffffffffffffffffffffffffffff1673ffffffffffffffffffffffffffffffffffffffff168152602001908152602001600020600082015181600001556020820151816001019080519060200190611a5d92919061227c565b506040820151816002019080519060200190611a7a92919061227c565b50905050505050565b60046020528060005260406000206000915090508060000160009054906101000a900460ff16908060000160019054906101000a900473ffffffffffffffffffffffffffffffffffffffff1690806001015490806002018054600181600116156101000203166002900480601f016020809104026020016040519081016040528092919081815260200182805460018160011615610100020316600290048015611b6e5780601f10611b4357610100808354040283529160200191611b6e565b820191906000526020600020905b815481529060010190602001808311611b5157829003601f168201915b5050505050908060030154908060040154905086565b60016000803373ffffffffffffffffffffffffffffffffffffffff1673ffffffffffffffffffffffffffffffffffffffff16815260200190815260200160002060000160009054906101000a900460ff1660ff16141515611be457600080fd5b60018060008773ffffffffffffffffffffffffffffffffffffffff1673ffffffffffffffffffffffffffffffffffffffff16815260200190815260200160002060000160009054906101000a900460ff1660ff16141515611c4457600080fd5b8473ffffffffffffffffffffffffffffffffffffffff163373ffffffffffffffffffffffffffffffffffffffff167f10081d654e0e6ab80f9241e7386056ef1049c97a6f9e71a9faf449066afaa4f0858786866040518085815260200180602001848152602001838152602001828103825285818151815260200191508051906020019080838360005b83811015611ce9578082015181840152602081019050611cce565b50505050905090810190601f168015611d165780820380516001836020036101000a031916815260200191505b509550505050505060405180910390a3611d2e6122fc565b60c060405190810160405280600160ff1681526020013373ffffffffffffffffffffffffffffffffffffffff16815260200185815260200186815260200184815260200183815250905080600460008873ffffffffffffffffffffffffffffffffffffffff1673ffffffffffffffffffffffffffffffffffffffff16815260200190815260200160002060008201518160000160006101000a81548160ff021916908360ff16021790555060208201518160000160016101000a81548173ffffffffffffffffffffffffffffffffffffffff021916908373ffffffffffffffffffffffffffffffffffffffff160217905550604082015181600101556060820151816002019080519060200190611e4692919061227c565b506080820151816003015560a08201518160040155905050505050505050565b611e6e61234c565b606060405190810160405280600160ff168152602001348152602001838152509050806000803373ffffffffffffffffffffffffffffffffffffffff1673ffffffffffffffffffffffffffffffffffffffff16815260200190815260200160002060008201518160000160006101000a81548160ff021916908360ff160217905550602082015181600101556040820151816002019080519060200190611f1692919061227c565b509050505050565b60016000803373ffffffffffffffffffffffffffffffffffffffff1673ffffffffffffffffffffffffffffffffffffffff16815260200190815260200160002060000160009054906101000a900460ff1660ff16141515611f7e57600080fd5b611f86612371565b608060405190810160405280600160ff1681526020018481526020018381526020013373ffffffffffffffffffffffffffffffffffffffff16815250905080600160008673ffffffffffffffffffffffffffffffffffffffff1673ffffffffffffffffffffffffffffffffffffffff16815260200190815260200160002060008201518160000160006101000a81548160ff021916908360ff160217905550602082015181600101908051906020019061204192919061227c565b50604082015181600201908051906020019061205e92919061227c565b5060608201518160030160006101000a81548173ffffffffffffffffffffffffffffffffffffffff021916908373ffffffffffffffffffffffffffffffffffffffff160217905550905050600260003373ffffffffffffffffffffffffffffffffffffffff1673ffffffffffffffffffffffffffffffffffffffff1681526020019081526020016000208490806001815401808255809150509060018203906000526020600020016000909192909190916101000a81548173ffffffffffffffffffffffffffffffffffffffff021916908373ffffffffffffffffffffffffffffffffffffffff1602179055505050505050565b6000815183511415156121685760009050612254565b816040516020018082805190602001908083835b6020831015156121a1578051825260208201915060208101905060208303925061217c565b6001836020036101000a03801982511681845116808217855250505050505090500191505060405160208183030381529060405280519060200120836040516020018082805190602001908083835b60208310151561221557805182526020820191506020810190506020830392506121f0565b6001836020036101000a038019825116818451168082178552505050505050905001915050604051602081830303815290604052805190602001201490505b92915050565b6060604051908101604052806000815260200160608152602001606081525090565b828054600181600116156101000203166002900490600052602060002090601f016020900481019282601f106122bd57805160ff19168380011785556122eb565b828001600101855582156122eb579182015b828111156122ea5782518255916020019190600101906122cf565b5b5090506122f891906123b3565b5090565b60c060405190810160405280600060ff168152602001600073ffffffffffffffffffffffffffffffffffffffff168152602001600081526020016060815260200160008152602001600081525090565b606060405190810160405280600060ff16815260200160008152602001606081525090565b608060405190810160405280600060ff1681526020016060815260200160608152602001600073ffffffffffffffffffffffffffffffffffffffff1681525090565b6123d591905b808211156123d15760008160009055506001016123b9565b5090565b9056fea165627a7a7230582085d1fad13870123c5fc938a029a9c7af31730b0ab8b766729e4c7ae843ffab7d0029",
  "source": "pragma solidity >=0.4.0 <0.7.0;\n\ncontract conditionalTokens {\n    struct Company{\n        uint8 exists;\n        uint256 balance;\n        string name;\n    }\n\n    struct Claim{\n        uint8 exists;\n        address company;\n        uint256 budget;\n        string city;\n        uint startTime;\n        uint endTime;\n    }\n\n    struct Employee{\n        uint8 exists;\n        string name;\n        string homeCity;\n        address payable company;\n    }\n\n    struct ServiceProvider{\n        uint exists;\n        string name;\n        string city;\n    }\n\n    mapping(address=>Company) public allCompanies;\n    mapping(address=>Employee) public allEmployees;\n    mapping(address=>address[]) public companyEmployees;\n    mapping(address=>ServiceProvider) public allServiceProviders;\n    mapping(address=>Claim) public allClaims;\n\n    event transfer(address indexed companyAddress, address indexed employeeAddress, address serviceProvider, uint amount);\n    event claim(address indexed companyAddress, address indexed employeeAddress, uint256 budget, string city, uint startTime, uint endTime);\n    function addCompany(string memory name) public payable{\n        //require(allCompanies[msg.sender].exists!=1);\n        Company memory newCompany = Company(1, msg.value, name);\n        allCompanies[msg.sender] = newCompany;\n    }\n\n    function addEmployee(address employeeAddress, string memory name, string memory homeCity) public{\n        require(allCompanies[msg.sender].exists==1);\n        //require(allEmployees[employeeAddress].exists!=1);\n        Employee memory newEmployee = Employee(1, name, homeCity, msg.sender);\n        allEmployees[employeeAddress] = newEmployee;\n        companyEmployees[msg.sender].push(employeeAddress);\n    }\n\n    function refillAccount() public payable{\n        require(allCompanies[msg.sender].exists==1);\n        allCompanies[msg.sender].balance = msg.value;\n    }\n\n    function addServiceProvider(string memory name, string memory location) public payable{\n        //require(allServiceProviders[msg.sender].exists!=1);\n        ServiceProvider memory newServiceProvider = ServiceProvider(1,name,location);\n        allServiceProviders[msg.sender] = newServiceProvider;\n    }\n\n    function addClaim(address employeeAddress, string memory city, uint256 priceLimit, uint startTime, uint endTime) public {\n        require(allCompanies[msg.sender].exists==1);\n        require(allEmployees[employeeAddress].exists==1);\n        emit claim(msg.sender, employeeAddress, priceLimit, city, startTime, endTime);\n        Claim memory newClaim = Claim(1, msg.sender, priceLimit, city, startTime, endTime);\n        allClaims[employeeAddress] = newClaim;\n    }\n\n    function payServiceProvider(address payable serviceProvider, uint amount) public {\n        require(allClaims[msg.sender].exists==1, 'Claim does not exist');\n        require(allClaims[msg.sender].startTime<now && allClaims[msg.sender].endTime>now, 'Incorrect start or end time');\n        require(allServiceProviders[serviceProvider].exists==1, 'Service provider does not exist');\n        require(!strCmp(allClaims[msg.sender].city, allEmployees[msg.sender].homeCity), 'City is a home city');\n        require(strCmp(allClaims[msg.sender].city, allServiceProviders[serviceProvider].city), 'City is not allowed');\n        require(allClaims[msg.sender].budget>amount, 'Over budget yo');\n        emit transfer(allEmployees[msg.sender].company, msg.sender, serviceProvider, amount);\n        serviceProvider.transfer(amount);\n    }\n\n    function strCmp(string memory a, string memory b) internal pure returns (bool) {\n        if(bytes(a).length != bytes(b).length) {\n            return false;\n        } else {\n            return keccak256(abi.encodePacked(a)) == keccak256(abi.encodePacked(b));\n        }\n    }\n\n    function getEmployees() public view returns(address[] memory){\n        return companyEmployees[msg.sender];\n    }\n\n}\n",
  "sourcePath": "/home/arash/Desktop/Hackathon/DelftHack/hackdelft-2019/contracts/conditionalTokens.sol",
  "compiler": {
    "name": "solc",
    "version": "0.5.0+commit.1d4f565a.Emscripten.clang"
  },
  "schemaVersion": "3.0.6",
  "updatedAt": "2019-05-12T05:42:00.102Z",
  "devdoc": {
    "methods": {}
  },
  "userdoc": {
    "methods": {}
  }
}