{
  "contractName": "conditionalTokens",
  "abi": [
    {
      "constant": true,
      "inputs": [
        {
          "name": "",
          "type": "address"
        }
      ],
      "name": "allCompanies",
      "outputs": [
        {
          "name": "exists",
          "type": "uint8"
        },
        {
          "name": "balance",
          "type": "uint256"
        },
        {
          "name": "name",
          "type": "string"
        }
      ],
      "payable": false,
      "stateMutability": "view",
      "type": "function"
    },
    {
      "constant": true,
      "inputs": [
        {
          "name": "",
          "type": "address"
        },
        {
          "name": "",
          "type": "uint256"
        }
      ],
      "name": "companyEmployees",
      "outputs": [
        {
          "name": "",
          "type": "address"
        }
      ],
      "payable": false,
      "stateMutability": "view",
      "type": "function"
    },
    {
      "constant": true,
      "inputs": [
        {
          "name": "",
          "type": "address"
        }
      ],
      "name": "allEmployees",
      "outputs": [
        {
          "name": "exists",
          "type": "uint8"
        },
        {
          "name": "name",
          "type": "string"
        },
        {
          "name": "homeCity",
          "type": "string"
        },
        {
          "name": "company",
          "type": "address"
        }
      ],
      "payable": false,
      "stateMutability": "view",
      "type": "function"
    },
    {
      "constant": true,
      "inputs": [
        {
          "name": "",
          "type": "address"
        }
      ],
      "name": "allServiceProviders",
      "outputs": [
        {
          "name": "exists",
          "type": "uint256"
        },
        {
          "name": "name",
          "type": "string"
        },
        {
          "name": "category",
          "type": "string"
        },
        {
          "name": "city",
          "type": "string"
        }
      ],
      "payable": false,
      "stateMutability": "view",
      "type": "function"
    },
    {
      "constant": true,
      "inputs": [
        {
          "name": "",
          "type": "address"
        }
      ],
      "name": "allClaims",
      "outputs": [
        {
          "name": "exists",
          "type": "uint8"
        },
        {
          "name": "company",
          "type": "address"
        },
        {
          "name": "budget",
          "type": "uint256"
        },
        {
          "name": "city",
          "type": "string"
        },
        {
          "name": "category",
          "type": "string"
        },
        {
          "name": "startTime",
          "type": "uint256"
        },
        {
          "name": "endTime",
          "type": "uint256"
        }
      ],
      "payable": false,
      "stateMutability": "view",
      "type": "function"
    },
    {
      "anonymous": false,
      "inputs": [
        {
          "indexed": true,
          "name": "companyAddress",
          "type": "address"
        },
        {
          "indexed": true,
          "name": "employeeAddress",
          "type": "address"
        },
        {
          "indexed": false,
          "name": "serviceProvider",
          "type": "address"
        },
        {
          "indexed": false,
          "name": "amount",
          "type": "uint256"
        },
        {
          "indexed": false,
          "name": "now",
          "type": "uint256"
        }
      ],
      "name": "transfer",
      "type": "event"
    },
    {
      "anonymous": false,
      "inputs": [
        {
          "indexed": true,
          "name": "companyAddress",
          "type": "address"
        },
        {
          "indexed": true,
          "name": "employeeAddress",
          "type": "address"
        },
        {
          "indexed": false,
          "name": "budget",
          "type": "uint256"
        },
        {
          "indexed": false,
          "name": "city",
          "type": "string"
        },
        {
          "indexed": false,
          "name": "category",
          "type": "string"
        },
        {
          "indexed": false,
          "name": "startTime",
          "type": "uint256"
        },
        {
          "indexed": false,
          "name": "endTime",
          "type": "uint256"
        }
      ],
      "name": "claim",
      "type": "event"
    },
    {
      "constant": false,
      "inputs": [
        {
          "name": "name",
          "type": "string"
        }
      ],
      "name": "addCompany",
      "outputs": [],
      "payable": true,
      "stateMutability": "payable",
      "type": "function"
    },
    {
      "constant": false,
      "inputs": [
        {
          "name": "employeeAddress",
          "type": "address"
        },
        {
          "name": "name",
          "type": "string"
        },
        {
          "name": "homeCity",
          "type": "string"
        }
      ],
      "name": "addEmployee",
      "outputs": [],
      "payable": false,
      "stateMutability": "nonpayable",
      "type": "function"
    },
    {
      "constant": false,
      "inputs": [],
      "name": "refillAccount",
      "outputs": [],
      "payable": true,
      "stateMutability": "payable",
      "type": "function"
    },
    {
      "constant": false,
      "inputs": [
        {
          "name": "name",
          "type": "string"
        },
        {
          "name": "location",
          "type": "string"
        },
        {
          "name": "category",
          "type": "string"
        }
      ],
      "name": "addServiceProvider",
      "outputs": [],
      "payable": true,
      "stateMutability": "payable",
      "type": "function"
    },
    {
      "constant": false,
      "inputs": [
        {
          "name": "employeeAddress",
          "type": "address"
        },
        {
          "name": "city",
          "type": "string"
        },
        {
          "name": "priceLimit",
          "type": "uint256"
        },
        {
          "name": "startTime",
          "type": "uint256"
        },
        {
          "name": "endTime",
          "type": "uint256"
        },
        {
          "name": "category",
          "type": "string"
        }
      ],
      "name": "addClaim",
      "outputs": [],
      "payable": false,
      "stateMutability": "nonpayable",
      "type": "function"
    },
    {
      "constant": false,
      "inputs": [
        {
          "name": "serviceProvider",
          "type": "address"
        },
        {
          "name": "amount",
          "type": "uint256"
        }
      ],
      "name": "payServiceProvider",
      "outputs": [],
      "payable": false,
      "stateMutability": "nonpayable",
      "type": "function"
    },
    {
      "constant": true,
      "inputs": [],
      "name": "getEmployees",
      "outputs": [
        {
          "name": "",
          "type": "address[]"
        }
      ],
      "payable": false,
      "stateMutability": "view",
      "type": "function"
    }
  ],
  "bytecode": "0x608060405234801561001057600080fd5b506129da806100206000396000f3fe6080604052600436106100b9576000357c0100000000000000000000000000000000000000000000000000000000900463ffffffff168062e31b3b146100be578063021fa6561461019c5780632209f5f4146102375780632444b200146103d45780633430afe5146103de5780633cf9e381146105545780634abefa36146106fd5780634b42c9cd1461076957806388ffb3e5146107c4578063c1d125e01461094f578063d6483d1714610b38578063e63a261514610bf3575b600080fd5b3480156100ca57600080fd5b5061010d600480360360208110156100e157600080fd5b81019080803573ffffffffffffffffffffffffffffffffffffffff169060200190929190505050610d72565b604051808460ff1660ff16815260200183815260200180602001828103825283818151815260200191508051906020019080838360005b8381101561015f578082015181840152602081019050610144565b50505050905090810190601f16801561018c5780820380516001836020036101000a031916815260200191505b5094505050505060405180910390f35b3480156101a857600080fd5b506101f5600480360360408110156101bf57600080fd5b81019080803573ffffffffffffffffffffffffffffffffffffffff16906020019092919080359060200190929190505050610e41565b604051808273ffffffffffffffffffffffffffffffffffffffff1673ffffffffffffffffffffffffffffffffffffffff16815260200191505060405180910390f35b34801561024357600080fd5b506103d2600480360360c081101561025a57600080fd5b81019080803573ffffffffffffffffffffffffffffffffffffffff1690602001909291908035906020019064010000000081111561029757600080fd5b8201836020820111156102a957600080fd5b803590602001918460018302840111640100000000831117156102cb57600080fd5b91908080601f016020809104026020016040519081016040528093929190818152602001838380828437600081840152601f19601f8201169050808301925050505050505091929192908035906020019092919080359060200190929190803590602001909291908035906020019064010000000081111561034c57600080fd5b82018360208201111561035e57600080fd5b8035906020019184600183028401116401000000008311171561038057600080fd5b91908080601f016020809104026020016040519081016040528093929190818152602001838380828437600081840152601f19601f820116905080830192505050505050509192919290505050610e8e565b005b6103dc611201565b005b3480156103ea57600080fd5b5061042d6004803603602081101561040157600080fd5b81019080803573ffffffffffffffffffffffffffffffffffffffff1690602001909291905050506112a9565b604051808560ff1660ff16815260200180602001806020018473ffffffffffffffffffffffffffffffffffffffff1673ffffffffffffffffffffffffffffffffffffffff168152602001838103835286818151815260200191508051906020019080838360005b838110156104af578082015181840152602081019050610494565b50505050905090810190601f1680156104dc5780820380516001836020036101000a031916815260200191505b50838103825285818151815260200191508051906020019080838360005b838110156105155780820151818401526020810190506104fa565b50505050905090810190601f1680156105425780820380516001836020036101000a031916815260200191505b50965050505050505060405180910390f35b34801561056057600080fd5b506105a36004803603602081101561057757600080fd5b81019080803573ffffffffffffffffffffffffffffffffffffffff169060200190929190505050611436565b60405180858152602001806020018060200180602001848103845287818151815260200191508051906020019080838360005b838110156105f15780820151818401526020810190506105d6565b50505050905090810190601f16801561061e5780820380516001836020036101000a031916815260200191505b50848103835286818151815260200191508051906020019080838360005b8381101561065757808201518184015260208101905061063c565b50505050905090810190601f1680156106845780820380516001836020036101000a031916815260200191505b50848103825285818151815260200191508051906020019080838360005b838110156106bd5780820151818401526020810190506106a2565b50505050905090810190601f1680156106ea5780820380516001836020036101000a031916815260200191505b5097505050505050505060405180910390f35b34801561070957600080fd5b5061071261162e565b6040518080602001828103825283818151815260200191508051906020019060200280838360005b8381101561075557808201518184015260208101905061073a565b505050509050019250505060405180910390f35b34801561077557600080fd5b506107c26004803603604081101561078c57600080fd5b81019080803573ffffffffffffffffffffffffffffffffffffffff169060200190929190803590602001909291905050506116f9565b005b3480156107d057600080fd5b50610813600480360360208110156107e757600080fd5b81019080803573ffffffffffffffffffffffffffffffffffffffff1690602001909291905050506121b8565b604051808860ff1660ff1681526020018773ffffffffffffffffffffffffffffffffffffffff1673ffffffffffffffffffffffffffffffffffffffff1681526020018681526020018060200180602001858152602001848152602001838103835287818151815260200191508051906020019080838360005b838110156108a757808201518184015260208101905061088c565b50505050905090810190601f1680156108d45780820380516001836020036101000a031916815260200191505b50838103825286818151815260200191508051906020019080838360005b8381101561090d5780820151818401526020810190506108f2565b50505050905090810190601f16801561093a5780820380516001836020036101000a031916815260200191505b50995050505050505050505060405180910390f35b610b366004803603606081101561096557600080fd5b810190808035906020019064010000000081111561098257600080fd5b82018360208201111561099457600080fd5b803590602001918460018302840111640100000000831117156109b657600080fd5b91908080601f016020809104026020016040519081016040528093929190818152602001838380828437600081840152601f19601f82011690508083019250505050505050919291929080359060200190640100000000811115610a1957600080fd5b820183602082011115610a2b57600080fd5b80359060200191846001830284011164010000000083111715610a4d57600080fd5b91908080601f016020809104026020016040519081016040528093929190818152602001838380828437600081840152601f19601f82011690508083019250505050505050919291929080359060200190640100000000811115610ab057600080fd5b820183602082011115610ac257600080fd5b80359060200191846001830284011164010000000083111715610ae457600080fd5b91908080601f016020809104026020016040519081016040528093929190818152602001838380828437600081840152601f19601f820116905080830192505050505050509192919290505050612357565b005b610bf160048036036020811015610b4e57600080fd5b8101908080359060200190640100000000811115610b6b57600080fd5b820183602082011115610b7d57600080fd5b80359060200191846001830284011164010000000083111715610b9f57600080fd5b91908080601f016020809104026020016040519081016040528093929190818152602001838380828437600081840152601f19601f82011690508083019250505050505050919291929050505061242e565b005b348015610bff57600080fd5b50610d7060048036036060811015610c1657600080fd5b81019080803573ffffffffffffffffffffffffffffffffffffffff16906020019092919080359060200190640100000000811115610c5357600080fd5b820183602082011115610c6557600080fd5b80359060200191846001830284011164010000000083111715610c8757600080fd5b91908080601f016020809104026020016040519081016040528093929190818152602001838380828437600081840152601f19601f82011690508083019250505050505050919291929080359060200190640100000000811115610cea57600080fd5b820183602082011115610cfc57600080fd5b80359060200191846001830284011164010000000083111715610d1e57600080fd5b91908080601f016020809104026020016040519081016040528093929190818152602001838380828437600081840152601f19601f8201169050808301925050505050505091929192905050506124e6565b005b60006020528060005260406000206000915090508060000160009054906101000a900460ff1690806001015490806002018054600181600116156101000203166002900480601f016020809104026020016040519081016040528092919081815260200182805460018160011615610100020316600290048015610e375780601f10610e0c57610100808354040283529160200191610e37565b820191906000526020600020905b815481529060010190602001808311610e1a57829003601f168201915b5050505050905083565b600260205281600052604060002081815481101515610e5c57fe5b906000526020600020016000915091509054906101000a900473ffffffffffffffffffffffffffffffffffffffff1681565b60016000803373ffffffffffffffffffffffffffffffffffffffff1673ffffffffffffffffffffffffffffffffffffffff16815260200190815260200160002060000160009054906101000a900460ff1660ff16141515610eee57600080fd5b60018060008873ffffffffffffffffffffffffffffffffffffffff1673ffffffffffffffffffffffffffffffffffffffff16815260200190815260200160002060000160009054906101000a900460ff1660ff16141515610f4e57600080fd5b8573ffffffffffffffffffffffffffffffffffffffff163373ffffffffffffffffffffffffffffffffffffffff167fe2df7383e4ddca8f0a8f5807b0d38feb1543b1a7730958787f4ced747cd289918688858888604051808681526020018060200180602001858152602001848152602001838103835287818151815260200191508051906020019080838360005b83811015610ff8578082015181840152602081019050610fdd565b50505050905090810190601f1680156110255780820380516001836020036101000a031916815260200191505b50838103825286818151815260200191508051906020019080838360005b8381101561105e578082015181840152602081019050611043565b50505050905090810190601f16801561108b5780820380516001836020036101000a031916815260200191505b5097505050505050505060405180910390a36110a5612822565b60e060405190810160405280600160ff1681526020013373ffffffffffffffffffffffffffffffffffffffff16815260200186815260200187815260200183815260200185815260200184815250905080600460008973ffffffffffffffffffffffffffffffffffffffff1673ffffffffffffffffffffffffffffffffffffffff16815260200190815260200160002060008201518160000160006101000a81548160ff021916908360ff16021790555060208201518160000160016101000a81548173ffffffffffffffffffffffffffffffffffffffff021916908373ffffffffffffffffffffffffffffffffffffffff1602179055506040820151816001015560608201518160020190805190602001906111c3929190612879565b5060808201518160030190805190602001906111e0929190612879565b5060a0820151816004015560c0820151816005015590505050505050505050565b60016000803373ffffffffffffffffffffffffffffffffffffffff1673ffffffffffffffffffffffffffffffffffffffff16815260200190815260200160002060000160009054906101000a900460ff1660ff1614151561126157600080fd5b346000803373ffffffffffffffffffffffffffffffffffffffff1673ffffffffffffffffffffffffffffffffffffffff16815260200190815260200160002060010181905550565b60016020528060005260406000206000915090508060000160009054906101000a900460ff1690806001018054600181600116156101000203166002900480601f0160208091040260200160405190810160405280929190818152602001828054600181600116156101000203166002900480156113685780601f1061133d57610100808354040283529160200191611368565b820191906000526020600020905b81548152906001019060200180831161134b57829003601f168201915b505050505090806002018054600181600116156101000203166002900480601f0160208091040260200160405190810160405280929190818152602001828054600181600116156101000203166002900480156114065780601f106113db57610100808354040283529160200191611406565b820191906000526020600020905b8154815290600101906020018083116113e957829003601f168201915b5050505050908060030160009054906101000a900473ffffffffffffffffffffffffffffffffffffffff16905084565b6003602052806000526040600020600091509050806000015490806001018054600181600116156101000203166002900480601f0160208091040260200160405190810160405280929190818152602001828054600181600116156101000203166002900480156114e85780601f106114bd576101008083540402835291602001916114e8565b820191906000526020600020905b8154815290600101906020018083116114cb57829003601f168201915b505050505090806002018054600181600116156101000203166002900480601f0160208091040260200160405190810160405280929190818152602001828054600181600116156101000203166002900480156115865780601f1061155b57610100808354040283529160200191611586565b820191906000526020600020905b81548152906001019060200180831161156957829003601f168201915b505050505090806003018054600181600116156101000203166002900480601f0160208091040260200160405190810160405280929190818152602001828054600181600116156101000203166002900480156116245780601f106115f957610100808354040283529160200191611624565b820191906000526020600020905b81548152906001019060200180831161160757829003601f168201915b5050505050905084565b6060600260003373ffffffffffffffffffffffffffffffffffffffff1673ffffffffffffffffffffffffffffffffffffffff1681526020019081526020016000208054806020026020016040519081016040528092919081815260200182805480156116ef57602002820191906000526020600020905b8160009054906101000a900473ffffffffffffffffffffffffffffffffffffffff1673ffffffffffffffffffffffffffffffffffffffff16815260200190600101908083116116a5575b5050505050905090565b6001600460003373ffffffffffffffffffffffffffffffffffffffff1673ffffffffffffffffffffffffffffffffffffffff16815260200190815260200160002060000160009054906101000a900460ff1660ff161415156117c3576040517f08c379a00000000000000000000000000000000000000000000000000000000081526004018080602001828103825260148152602001807f436c61696d20646f6573206e6f7420657869737400000000000000000000000081525060200191505060405180910390fd5b611981600460003373ffffffffffffffffffffffffffffffffffffffff1673ffffffffffffffffffffffffffffffffffffffff1681526020019081526020016000206003018054600181600116156101000203166002900480601f01602080910402602001604051908101604052809291908181526020018280546001816001161561010002031660029004801561189c5780601f106118715761010080835404028352916020019161189c565b820191906000526020600020905b81548152906001019060200180831161187f57829003601f168201915b5050505050600360008573ffffffffffffffffffffffffffffffffffffffff1673ffffffffffffffffffffffffffffffffffffffff1681526020019081526020016000206002018054600181600116156101000203166002900480601f0160208091040260200160405190810160405280929190818152602001828054600181600116156101000203166002900480156119775780601f1061194c57610100808354040283529160200191611977565b820191906000526020600020905b81548152906001019060200180831161195a57829003601f168201915b505050505061271a565b151561198c57600080fd5b42600460003373ffffffffffffffffffffffffffffffffffffffff1673ffffffffffffffffffffffffffffffffffffffff16815260200190815260200160002060040154108015611a1e575042600460003373ffffffffffffffffffffffffffffffffffffffff1673ffffffffffffffffffffffffffffffffffffffff16815260200190815260200160002060050154115b1515611a92576040517f08c379a000000000000000000000000000000000000000000000000000000000815260040180806020018281038252601b8152602001807f496e636f7272656374207374617274206f7220656e642074696d65000000000081525060200191505060405180910390fd5b6001600360008473ffffffffffffffffffffffffffffffffffffffff1673ffffffffffffffffffffffffffffffffffffffff16815260200190815260200160002060000154141515611b4c576040517f08c379a000000000000000000000000000000000000000000000000000000000815260040180806020018281038252601f8152602001807f536572766963652070726f766964657220646f6573206e6f742065786973740081525060200191505060405180910390fd5b611d0a600460003373ffffffffffffffffffffffffffffffffffffffff1673ffffffffffffffffffffffffffffffffffffffff1681526020019081526020016000206002018054600181600116156101000203166002900480601f016020809104026020016040519081016040528092919081815260200182805460018160011615610100020316600290048015611c255780601f10611bfa57610100808354040283529160200191611c25565b820191906000526020600020905b815481529060010190602001808311611c0857829003601f168201915b5050505050600160003373ffffffffffffffffffffffffffffffffffffffff1673ffffffffffffffffffffffffffffffffffffffff1681526020019081526020016000206002018054600181600116156101000203166002900480601f016020809104026020016040519081016040528092919081815260200182805460018160011615610100020316600290048015611d005780601f10611cd557610100808354040283529160200191611d00565b820191906000526020600020905b815481529060010190602001808311611ce357829003601f168201915b505050505061271a565b151515611d7f576040517f08c379a00000000000000000000000000000000000000000000000000000000081526004018080602001828103825260138152602001807f43697479206973206120686f6d6520636974790000000000000000000000000081525060200191505060405180910390fd5b611f3d600460003373ffffffffffffffffffffffffffffffffffffffff1673ffffffffffffffffffffffffffffffffffffffff1681526020019081526020016000206002018054600181600116156101000203166002900480601f016020809104026020016040519081016040528092919081815260200182805460018160011615610100020316600290048015611e585780601f10611e2d57610100808354040283529160200191611e58565b820191906000526020600020905b815481529060010190602001808311611e3b57829003601f168201915b5050505050600360008573ffffffffffffffffffffffffffffffffffffffff1673ffffffffffffffffffffffffffffffffffffffff1681526020019081526020016000206003018054600181600116156101000203166002900480601f016020809104026020016040519081016040528092919081815260200182805460018160011615610100020316600290048015611f335780601f10611f0857610100808354040283529160200191611f33565b820191906000526020600020905b815481529060010190602001808311611f1657829003601f168201915b505050505061271a565b1515611fb1576040517f08c379a00000000000000000000000000000000000000000000000000000000081526004018080602001828103825260138152602001807f43697479206973206e6f7420616c6c6f7765640000000000000000000000000081525060200191505060405180910390fd5b80600460003373ffffffffffffffffffffffffffffffffffffffff1673ffffffffffffffffffffffffffffffffffffffff1681526020019081526020016000206001015411151561206a576040517f08c379a000000000000000000000000000000000000000000000000000000000815260040180806020018281038252600e8152602001807f4f7665722062756467657420796f00000000000000000000000000000000000081525060200191505060405180910390fd5b3373ffffffffffffffffffffffffffffffffffffffff16600160003373ffffffffffffffffffffffffffffffffffffffff1673ffffffffffffffffffffffffffffffffffffffff16815260200190815260200160002060030160009054906101000a900473ffffffffffffffffffffffffffffffffffffffff1673ffffffffffffffffffffffffffffffffffffffff167f903fa4460f82ab04c1348c9f29275da558f9df40702a57ba3036367f9cbcf369848442604051808473ffffffffffffffffffffffffffffffffffffffff1673ffffffffffffffffffffffffffffffffffffffff168152602001838152602001828152602001935050505060405180910390a38173ffffffffffffffffffffffffffffffffffffffff166108fc829081150290604051600060405180830381858888f193505050501580156121b3573d6000803e3d6000fd5b505050565b60046020528060005260406000206000915090508060000160009054906101000a900460ff16908060000160019054906101000a900473ffffffffffffffffffffffffffffffffffffffff1690806001015490806002018054600181600116156101000203166002900480601f0160208091040260200160405190810160405280929190818152602001828054600181600116156101000203166002900480156122a35780601f10612278576101008083540402835291602001916122a3565b820191906000526020600020905b81548152906001019060200180831161228657829003601f168201915b505050505090806003018054600181600116156101000203166002900480601f0160208091040260200160405190810160405280929190818152602001828054600181600116156101000203166002900480156123415780601f1061231657610100808354040283529160200191612341565b820191906000526020600020905b81548152906001019060200180831161232457829003601f168201915b5050505050908060040154908060050154905087565b61235f6128f9565b6080604051908101604052806001815260200185815260200184815260200183815250905080600360003373ffffffffffffffffffffffffffffffffffffffff1673ffffffffffffffffffffffffffffffffffffffff1681526020019081526020016000206000820151816000015560208201518160010190805190602001906123ea929190612879565b506040820151816002019080519060200190612407929190612879565b506060820151816003019080519060200190612424929190612879565b5090505050505050565b612436612922565b606060405190810160405280600160ff168152602001348152602001838152509050806000803373ffffffffffffffffffffffffffffffffffffffff1673ffffffffffffffffffffffffffffffffffffffff16815260200190815260200160002060008201518160000160006101000a81548160ff021916908360ff1602179055506020820151816001015560408201518160020190805190602001906124de929190612879565b509050505050565b60016000803373ffffffffffffffffffffffffffffffffffffffff1673ffffffffffffffffffffffffffffffffffffffff16815260200190815260200160002060000160009054906101000a900460ff1660ff1614151561254657600080fd5b61254e612947565b608060405190810160405280600160ff1681526020018481526020018381526020013373ffffffffffffffffffffffffffffffffffffffff16815250905080600160008673ffffffffffffffffffffffffffffffffffffffff1673ffffffffffffffffffffffffffffffffffffffff16815260200190815260200160002060008201518160000160006101000a81548160ff021916908360ff1602179055506020820151816001019080519060200190612609929190612879565b506040820151816002019080519060200190612626929190612879565b5060608201518160030160006101000a81548173ffffffffffffffffffffffffffffffffffffffff021916908373ffffffffffffffffffffffffffffffffffffffff160217905550905050600260003373ffffffffffffffffffffffffffffffffffffffff1673ffffffffffffffffffffffffffffffffffffffff1681526020019081526020016000208490806001815401808255809150509060018203906000526020600020016000909192909190916101000a81548173ffffffffffffffffffffffffffffffffffffffff021916908373ffffffffffffffffffffffffffffffffffffffff1602179055505050505050565b600081518351141515612730576000905061281c565b816040516020018082805190602001908083835b6020831015156127695780518252602082019150602081019050602083039250612744565b6001836020036101000a03801982511681845116808217855250505050505090500191505060405160208183030381529060405280519060200120836040516020018082805190602001908083835b6020831015156127dd57805182526020820191506020810190506020830392506127b8565b6001836020036101000a038019825116818451168082178552505050505050905001915050604051602081830303815290604052805190602001201490505b92915050565b60e060405190810160405280600060ff168152602001600073ffffffffffffffffffffffffffffffffffffffff16815260200160008152602001606081526020016060815260200160008152602001600081525090565b828054600181600116156101000203166002900490600052602060002090601f016020900481019282601f106128ba57805160ff19168380011785556128e8565b828001600101855582156128e8579182015b828111156128e75782518255916020019190600101906128cc565b5b5090506128f59190612989565b5090565b608060405190810160405280600081526020016060815260200160608152602001606081525090565b606060405190810160405280600060ff16815260200160008152602001606081525090565b608060405190810160405280600060ff1681526020016060815260200160608152602001600073ffffffffffffffffffffffffffffffffffffffff1681525090565b6129ab91905b808211156129a757600081600090555060010161298f565b5090565b9056fea165627a7a72305820626ea71a5dddddbafb8421fb8a3d3977f58d1bd399c303c1e964a11dfc41f2190029",
  "source": "pragma solidity >=0.4.0 <0.7.0;\n\ncontract conditionalTokens {\n    struct Company{\n        uint8 exists;\n        uint256 balance;\n        string name;\n    }\n\n    struct Claim{\n        uint8 exists;\n        address company;\n        uint256 budget;\n        string city;\n        string category;\n        uint startTime;\n        uint endTime;\n    }\n\n    struct Employee{\n        uint8 exists;\n        string name;\n        string homeCity;\n        address payable company;\n    }\n\n    struct ServiceProvider{\n        uint exists;\n        string name;\n        string category;\n        string city;\n    }\n\n    mapping(address=>Company) public allCompanies;\n    mapping(address=>Employee) public allEmployees;\n    mapping(address=>address[]) public companyEmployees;\n    mapping(address=>ServiceProvider) public allServiceProviders;\n    mapping(address=>Claim) public allClaims;\n\n    event transfer(address indexed companyAddress, address indexed employeeAddress, address serviceProvider, uint amount, uint now);\n    event claim(address indexed companyAddress, address indexed employeeAddress, uint256 budget, string city, string category, uint startTime, uint endTime);\n    function addCompany(string memory name) public payable{\n        //require(allCompanies[msg.sender].exists!=1);\n        Company memory newCompany = Company(1, msg.value, name);\n        allCompanies[msg.sender] = newCompany;\n    }\n\n    function addEmployee(address employeeAddress, string memory name, string memory homeCity) public{\n        require(allCompanies[msg.sender].exists==1);\n        //require(allEmployees[employeeAddress].exists!=1);\n        Employee memory newEmployee = Employee(1, name, homeCity, msg.sender);\n        allEmployees[employeeAddress] = newEmployee;\n        companyEmployees[msg.sender].push(employeeAddress);\n    }\n\n    function refillAccount() public payable{\n        require(allCompanies[msg.sender].exists==1);\n        allCompanies[msg.sender].balance = msg.value;\n    }\n\n    function addServiceProvider(string memory name, string memory location, string memory category) public payable{\n        //require(allServiceProviders[msg.sender].exists!=1);\n        ServiceProvider memory newServiceProvider = ServiceProvider(1,name,location, category);\n        allServiceProviders[msg.sender] = newServiceProvider;\n    }\n\n    function addClaim(address employeeAddress, string memory city, uint256 priceLimit, uint startTime, uint endTime, string memory category) public {\n        require(allCompanies[msg.sender].exists==1);\n        require(allEmployees[employeeAddress].exists==1);\n        emit claim(msg.sender, employeeAddress, priceLimit, city, category, startTime, endTime);\n        Claim memory newClaim = Claim(1, msg.sender, priceLimit, city, category, startTime, endTime);\n        allClaims[employeeAddress] = newClaim;\n    }\n\n    function payServiceProvider(address payable serviceProvider, uint amount) public {\n        require(allClaims[msg.sender].exists==1, 'Claim does not exist');\n        require(strCmp(allClaims[msg.sender].category, allServiceProviders[serviceProvider].category));\n        require(allClaims[msg.sender].startTime<now && allClaims[msg.sender].endTime>now, 'Incorrect start or end time');\n        require(allServiceProviders[serviceProvider].exists==1, 'Service provider does not exist');\n        require(!strCmp(allClaims[msg.sender].city, allEmployees[msg.sender].homeCity), 'City is a home city');\n        require(strCmp(allClaims[msg.sender].city, allServiceProviders[serviceProvider].city), 'City is not allowed');\n        require(allClaims[msg.sender].budget>amount, 'Over budget yo');\n        emit transfer(allEmployees[msg.sender].company, msg.sender, serviceProvider, amount, now);\n        serviceProvider.transfer(amount);\n    }\n\n    function strCmp(string memory a, string memory b) internal pure returns (bool) {\n        if(bytes(a).length != bytes(b).length) {\n            return false;\n        } else {\n            return keccak256(abi.encodePacked(a)) == keccak256(abi.encodePacked(b));\n        }\n    }\n\n    function getEmployees() public view returns(address[] memory){\n        return companyEmployees[msg.sender];\n    }\n\n}\n",
  "sourcePath": "/home/arash/Desktop/Hackathon/DelftHack/hackdelft-2019/contracts/conditionalTokens.sol",
  "compiler": {
    "name": "solc",
    "version": "0.5.0+commit.1d4f565a.Emscripten.clang"
  },
  "schemaVersion": "3.0.6",
  "updatedAt": "2019-05-12T06:49:22.772Z",
  "devdoc": {
    "methods": {}
  },
  "userdoc": {
    "methods": {}
  }
}